:0A1E3B000001020203030404050580
:10069E00E4F513F512F511F510C203C200C202C241
:1006AE0001121D691209DA7E137F008E528F537567
:1006BE005A13755B1275501375511C755813755975
:1006CE004A755C13755D78EE54E070030207E575AC
:1006DE0014007515808E168F17C374A29FFF7413A6
:1006EE009ECF2402CF3400FEE48F0F8E0EF50DF553
:1006FE000CF50BF50AF509F508AF0FAE0EAD0DAC06
:10070E000CAB0BAA0AA909A808C31209C95026E501
:10071E0015250BF582E514350AF58374CDF0E50B3E
:10072E002401F50BE4350AF50AE43509F509E4353B
:10073E0008F50880C4E4F50BF50AF509F508AF0FC6
:10074E00AE0EAD0DAC0CAB0BAA0AA909A808C312CC
:10075E0009C95031AE0AAF0BE5172FF582E5163EEB
:10076E00F583E0FDE5152FF582E5143EF583EDF0FA
:10077E00EF2401F50BE43EF50AE43509F509E435FD
:10078E0008F50880B985145285155374002480FF2E
:10079E00741334FFFEC3E55B9FF55BE55A9EF55A75
:1007AE00C3E5559FF555E5549EF554C3E5579FF5A2
:1007BE0057E5569EF556C3E5519FF551E5509EF50A
:1007CE0050C3E5599FF559E5589EF558C3E55D9F11
:1007DE00F55DE55C9EF55CD2E843D82090E668E0D6
:1007EE004409F090E65CE0443DF0D2AF90E680E044
:1007FE0020E105D208121B5890E680E054F7F05322
:10080E008EF8C20330010512047AC2013003291298
:10081E001ED25024C203121CDE20001690E682E087
:10082E0030E704E020E1EF90E682E030E604E020DD
:0D083E00E0E4121BB4121ED412157180C725
:10047A0090E6B9E0700302052B1470030205A82464
:10048A00FE700302062B24FB700302052514700379
:10049A0002051F1460731460762405600302068A3D
:1004AA00121ED6400302069690E6BBE024FE6022A6
:1004BA0014603324FD601114602224067048E5524A
:1004CA0090E6B3F0E5538037E55A90E6B3F0E55B82
:1004DA00802DE55490E6B3F0E5558023E55690E685
:1004EA00B3F0E557801990E6BAE0FF121BE0AA06BE
:1004FA00A9077B01EA494B600DEE90E6B3F0EF9055
:10050A00E6B4F002069602068F121E04020696123E
:10051A001EB602069612196D020696121DF2020600
:10052A0096121ED8400302069690E6B8E0247F6031
:10053A001514601924027063A200E43325E0FFA2B7
:10054A0002E4334F8041E490E740F0803F90E6BCFC
:10055A00E0547EFF7E00E0D394807C0040047D015D
:10056A0080027D00EC4EFEED4F243BF582741E3E68
:10057A00F583E493FF3395E0FEEF24A1FFEE34E622
:10058A008F82F583E0540190E740F0E4A3F090E60F
:10059A008AF090E68B7402F002069602068F121E0B
:1005AA00DA400302069690E6B8E024FE60162402BA
:1005BA00600302069690E6BAE0B40105C20002069C
:1005CA009602068F90E6BAE0705590E6BCE0547E3B
:1005DA00FF7E00E0D394807C0040047D0180027D90
:1005EA0000EC4EFEED4F243BF582741E3EF583E48B
:1005FA0093FF3395E0FEEF24A1FFEE34E68F82F5F8
:10060A0083E054FEF090E6BCE05480131313541FA9
:10061A00FFE0540F2F90E683F0E04420F0806D80D5
:10062A0064121EDC506690E6B8E024FE60192402CB
:10063A00705A90E6BAE0B40104D200804F90E6BA4C
:10064A00E064026047803E90E6BCE0547EFF7E0094
:10065A00E0D394807C0040047D0180027D00EC4E52
:10066A00FEED4F243BF582741E3EF583E493FF337F
:10067A0095E0FEEF24A1FFEE34E68F82F583800831
:10068A00120080500790E6A0E04401F090E6A0E056
:03069A004480F0A9
:01069D00223A
:030033000212F9BD
:0412F90053D8EF32A5
:101D6900758CE0758AC0E58954F04401F589758E52
:081D790003D28CD2A9D2AF22E3
:03000B0002116778
:10116700C0E0C0F0C083C082C0D075D000C000C04E
:1011770001C002C003C004C005C006C007758CE0EB
:10118700758AC0D28CE47F607EEAFDFCAB4FAA4E25
:10119700A94DA84CC31209C95019AF4FAE4EAD4D5A
:1011A700AC4CEF2401F54FE43EF54EE43DF54DE43C
:1011B7003CF54CE47F01FEFDFCAB4FAA4EA94DA8C0
:1011C7004CC31209C97008E5A054F02534F5A0E511
:1011D7002B2401FFE4352AFEE4FCFDAB4FAA4EA900
:1011E7004DA84CC31209C9700553A0F0C28CD00793
:1011F700D006D005D004D003D002D001D000D0D083
:09120700D082D083D0F0D0E03297
:101300001201000200000040181601100000010246
:1013100000010A06000200000040010009022E0040
:1013200001010080FA0904000004FF000000070525
:1013300001024000000705820200020007050202C8
:101340000002000705810240000009022E00010191
:101350000080FA0904000004FF00000007050102F4
:10136000400000070582024000000705020200025B
:101370000007058102400000040309041003510026
:10138000480059002D00430043004400160351005B
:10139000480059002D0031003000200020002000BE
:0413A0002000000029
:100CE10060802800010302020202020700000002E4
:100CF100000002001332120A080C08000000000074
:100D01000000003F0104020202020207000000028B
:100D11000000000020202020000000000000000052
:100D21000000003F033A030303030307000000022E
:100D3100000002001332120A080C08000000000033
:100D41000000003F03FAFA03030303070000000257
:100D51000000000020202020000000000000000012
:100D61000000003F60242887000000000000000010
:100D71000000000000000000000000000000000072
:100D810000000000000000000000000047288080F3
:060D9100000000CA4E0044
:100E700090E60174CAF090E6F574FFF0902880E0E7
:100E800090E6F3F0902881E090E6C3F0902882E0AD
:100E900090E6C1F0902883E090E6C2F0902885E0CB
:100EA00090E6C0F0902886E090E6F4F075AF077405
:100EB00028F59A7400F59B759DE4E4F59EFF90E695
:100EC0007BE090E67CF00FBF80F490E67174FFF059
:100ED000F5B490E672E04480F043B680000000E490
:100EE00090E6C4F000000090E6C5F0902887E090FE
:100EF000E6C6F0902888E090E6C7F0902889E09058
:100F0000E6C8F090288AE090E6C9F090288BE0903F
:100F1000E6CAF090288CE090E6CBF090288DE09027
:0B0F2000E6CCF090288EE090E6CDF0CB
:010F2B0022A3
:03004300021000A8
:0300530002100098
:10100000021D8100021DC700021DB100021D9900D2
:10101000021A24000219AA00021EDE00021EDF00CE
:10102000021EE000021EE100021800000213A400EC
:10103000021EE200021EE300021EE400021EE500A2
:10104000021EE600021EDF00021EE700021EE8008C
:10105000021EE900021EEA00021EEB00021EEC0066
:10106000021EED00021EDF00021EDF00021EDF0076
:10107000021EEE00021EEF00021EF000021EF10032
:10108000021EF200021EF300021EF400021EF50012
:10109000021EF600021EF700021EF800021EF900F2
:1010A000021EFA00021EFB00021EFC00021EFD00D2
:0810B000021EFE00021EFF00FB
:101BB40090E682E030E004E020E60B90E682E0303C
:101BC400E119E030E71590E680E04401F07F147EEF
:0C1BD400001218A290E680E054FEF022FF
:101CDE0090E682E044C0F090E681F0438701000078
:041CEE0000000022D0
:101B580030080990E680E0440AF0800790E680E0CB
:101B68004408F07FDC7E051218A290E65D74FFF051
:0F1B780090E65FF05391EF90E680E054F7F02293
:021BE000A90753
:101BE200AE5CAF5D8F828E83A3E064037017AD019C
:101BF20019ED7001228F828E83E07C002FFDEC3E76
:091C0200FEAF0580DF7E007F00CB
:011C0B0022B6
:1018A2008E1C8F1D90E600E054187012E51D240175
:1018B200FFE4351CC313F51CEF13F51D801590E6EC
:1018C20000E05418FFBF100BE51D25E0F51DE51CD7
:1018D20033F51CE51D151DAE1C7002151C4E60056E
:0618E200121CF280EE2250
:101CF2007400F58690FDA57C05A3E582458370F905
:011D020022BE
:100D9700C1850223000002311040C107044800004A
:020DA70000004A
:081C630090E679F07F057E0098
:101C6B008E1E8F1FE51F451E60177F957E00120F7E
:101C7B00CC000000000000E51F151F70E7151E804B
:021C8B00E32252
:1009DA0090E600E054E74410F000000000000090A8
:1009EA00E61074A0F000000090E60B7401F090E6A7
:1009FA001274E0F0000000E490E613F000000090AA
:100A0A00E61474E0F0000000E490E615F00000003F
:100A1A0090E618740CF000000090E6D27402F09090
:100A2A00E6047480F00000007402F0000000E4F0B4
:100A3A0000000090E61474E0F0000000120E70E46A
:100A4A0090E671F075B4FF90E672F075B6FF75B175
:100A5A00FF90E670F075B2FFC28CD287D285121E63
:100A6A002375230275240000000090E61074A0F09C
:100A7A0000000000000090E611F000000090E65E21
:100A8A00E04408F0000000E490E68DF090E65EE0B5
:100A9A004404F0000000E490E68FF0121C38538002
:100AAA00FE7F9A7E00121E777528007529B4754359
:100ABA00017544907531107532B875460675472C24
:100ACA00121EBE90E67AE054FEF0E4FD7F90121A00
:100ADA00C47F647E001218A27DFF7F42121AC47F6F
:100AEA00647E001218A27D827F4E121AC47535FFE9
:100AFA0075388290E782E535F090E781E538F012A3
:050B0A0012FDD2832260
:1017170090E678E04480F07491121C6390E679E0DB
:1017270090E7C0121C6690E679E090E7C1121C664C
:1017370090E679E090E7C2121C6690E679E090E7C0
:10174700C3121C6690E678E04440121C6690E67867
:10175700E04480F07442121C6390E679E535121C70
:101767006690E678E04440121C6690E678E0448094
:10177700F090E679744E121C6690E679E538121CF3
:0F1787006690E678E04440F07F057E00021C6B20
:10157100E54B2401F54BE4354AF54AE43549F54993
:10158100E43548F548E47FE87E03FDFCAB4BAA4A0D
:10159100A949A848C31209C97006FD7F90121AC44F
:1015A1007FA07E867D017C00AB4BAA4AA949A84851
:1015B100C31209C97009121E381217171212FD7FC2
:1015C100407E0D7D037C00AB4BAA4AA949A848D3B4
:1015D1001209C94009E4F54BF54AF549F5483004CB
:1015E10020E533B401031210B8E533B4020312123B
:1015F100AFE533B40403121858E533B46303121290
:0416010010C20422ED
:021ED200D32219
:021ED400D32217
:021ED600D32215
:10196D0090E680E030E71800000090E6207402F069
:10197D00000000E490E621F0000000D20580160082
:10198D000000E490E620F000000090E6217440F0A5
:0D199D00000000C20590E6BAE0F541D3223B
:101DF20090E740E541F0E490E68AF090E68B04F04B
:021E0200D322E9
:081EB60090E6BAE0F527D32203
:101E040090E740E527F0E490E68AF090E68B04F052
:021E1400D322D7
:021ED800D32213
:021EDA00D32211
:021EDC00D3220F
:10008000E4F518F51990E6B9E0244B60711470039B
:100090000202AF24F470030202E524FD70030203A0
:1000A0002F14700302039324FD70030203C814701D
:1000B0000302044C24176003020476E490E68AF0FD
:1000C00090E68BF090E6A0E020E1F990E68BE0F579
:1000D00018E4F5B5F5B390E60174CAF0E490E6C310
:1000E000F090E6C2F0D20400000090E6047480F0C4
:1000F0000000007402F0000000E4F0020478E490D4
:10010000E68AF090E68BF090E6A0E020E1F990E638
:100110008BE0F518D3943F4024E4F5197440251979
:10012000F582E434E7F583E0FF74AB2519F582E44A
:100130003428F583EFF00519E519B440DF9028AEB7
:10014000E0FFE4FCFDFEFB7A01F9F81208ACC00404
:10015000C005C006C0079028ADE0FFE4FCFDFEFB33
:10016000FA7901F81208ACD003D002D001D000EF28
:100170002BFBEE3AFAED39F9EC38F89028AFE0FFB6
:10018000E4FCFDFEEB2FF53EEE3AF53DED39F53C96
:10019000EC38F53B9028ADE0F52CA3E0F52EA3E07C
:1001A000F52D7F9A121E779028ABE0FF7E00121E7D
:1001B000809028ABE0FF7E00121E899028ABE0FF04
:1001C0007E00121E929028ACE075F004A4FFAEF001
:1001D000121E9B9028ACE075F004A4FFAEF0121E36
:1001E000A49028ACE075F004A4FFAEF0121EAD9010
:1001F00028B0E0C3940250139028CCE090E6C07081
:1002000005744EF08016749CF080119028CCE0901C
:10021000E6C07005749FF08003749DF09028CEE0D6
:10022000F5399028CBE0F5379028CFE0F5429028BB
:10023000D9E0F536A3E0FEA3E07C002400F526EC2F
:100240003EF5259028B1E0F533E5337003753301B1
:100250009028B6E0FEA3E07C002400F529EC3EF5F2
:1002600028A3E0FEA3E02400F544EC3EF5439028EB
:10027000B2E0FEA3E02400F532EC3EF531A3E0FE4F
:10028000A3E02400F547EC3EF5469028BCE0FEA331
:10029000E02400F540EC3EF53F9028BAE0FEA3E0F4
:1002A0002400F530EC3EF52FE4FD7F900203C2E41C
:1002B000F51974AB2519F582E43428F583E0FF7451
:1002C000402519F582E434E7F583EFF00519E519C7
:1002D000B440DF000000E490E68AF000000090E601
:1002E0008B7440804390E74074B5F0A37406F0A38C
:1002F000740AF0A37498F0A3740FF0A3747CF0A3B5
:100300007401F0A304F0A37493F0300505E4A3F0A6
:10031000800690E74974FFF0000000E490E68AF060
:1003200000000090E68B740AF0121C3802047890EA
:10033000E678E04480F090E6797491F07F647E0086
:10034000120FCC90E679E090E740F07F647E0012D7
:100350000FCC90E679E090E741F07F647E00120FC9
:10036000CC90E679E090E742F07F647E00120FCCFB
:1003700090E679E090E743F090E678E04440F000C2
:100380000000E490E68AF000000090E68B7404F030
:10039000020478E490E68AF090E68BF090E6A0E024
:1003A00020E1F990E68BE0F518D3940150030204A4
:1003B0007890E741E0FD7F42121AC490E740E0FDEB
:1003C0007F4E121AC4020478E490E68AF090E68B1D
:1003D000F090E6A0E020E1F990E68BE0F518D394E8
:1003E00001500302047890E740E05480C4131313D3
:1003F000540124FF92A3E05440C41313540324FF78
:1004000092A2E05420C413540724FF92A1E0541098
:10041000C4540F24FF92A0A3E075F00AA4FFAEF02D
:100420001218A290E740E05408131313541F24FF3E
:1004300092A3E054041313543F24FF92A2E0540209
:10044000C31324FF92A1E01392A0802CE490E68ACB
:10045000F090E68BF090E6A0E020E1F990E68BE0EA
:10046000F518D2867F647E001218A2C2867F647E51
:09047000001218A28002D322C37D
:010479002260
:101D8100C0E0C083C082D2015391EF90E65D74013F
:081D9100F0D082D083D0E032D3
:101DB100C0E0C083C0825391EF90E65D7404F0D01F
:061DC10082D083D0E03265
:101DC700C0E0C083C0825391EF90E65D7402F0D00B
:061DD70082D083D0E0324F
:101A2400C0E0C083C0828558548559558555828548
:101A34005483A37402F08550568551578557828587
:101A44005683A37407F05391EF90E65D7410F0D0C1
:061A540082D083D0E032D5
:101D9900C0E0C083C082D2035391EF90E65D74081E
:081DA900F0D082D083D0E032BB
:1019AA00C0E0C083C08290E680E030E720855054D2
:1019BA00855155855582855483A37402F0855856FE
:1019CA00855957855782855683A37407F05391EF3B
:0D19DA0090E65D7420F0D082D083D0E03222
:011EDE0032D1
:011EDF0032D0
:011EE00032CF
:011EE10032CE
:10180000C0E0C0F0C083C082C0D075D000C000C0AE
:1018100001C002C003C004C005C006C007C2AF12A9
:101820001E3800000090E68F7404F0000000539111
:10183000EF90E65FE04404F01212FDD2AFD007D083
:1018400006D005D004D003D002D001D000D0D0D033
:0818500082D083D0F0D0E03219
:1013A400C0E0C083C082C0D075D000C004C006C0F5
:0113B4000731
:1013B500C2AF90E6A1E020E1F990E780E014601467
:1013C50024F8601E240C604624FE6046147048759F
:1013D5002200804390E782E0F53590E781E0F5381B
:1013E5008035D28C90E781E0540FF534A3E0FEA35D
:1013F500E07C002400FFEC3EC313F52AEF13F52B28
:10140500754F00754E00754D00754C008009C28CF6
:101415008005752200D20600000090E68DE4F053A9
:0B14250091EF90E65FE04408F0D2AFCA
:0F143000D007D006D004D0D0D082D083D0E03205
:011EE20032CD
:011EE30032CC
:011EE40032CB
:011EE50032CA
:011EE60032C9
:011EE70032C8
:011EE80032C7
:011EE90032C6
:011EEA0032C5
:011EEB0032C4
:011EEC0032C3
:011EED0032C2
:011EEE0032C1
:011EEF0032C0
:011EF00032BF
:011EF10032BE
:011EF20032BD
:011EF30032BC
:011EF40032BB
:011EF50032BA
:011EF60032B9
:011EF70032B8
:011EF80032B7
:011EF90032B6
:011EFA0032B5
:011EFB0032B4
:011EFC0032B3
:011EFD0032B2
:011EFE0032B1
:011EFF0032B0
:060C17008F1A8C1B8D1CDE
:100C1D00531A0753A0BF7F0A7E00120FCCE4F51DB7
:100C2D00F51EC37402951EFFE51AA807088002C3BE
:100C3D0013D8FC30E00543A020800353A0DF7F0ACA
:100C4D007E00120FCC43A0107F0A7E00120FCC53F2
:100C5D00A0EF7F0A7E00120FCC051EE51E70020567
:100C6D001DC39403E51D6480948040B6E4F51DF525
:100C7D001EC37409951EFFE51CAE1BA80708800551
:100C8D00CEC313CE13D8F930E00543A02080035313
:100C9D00A0DF7F0A7E00120FCC43A0107F0A7E00DA
:100CAD00120FCC53A0EF7F0A7E00120FCC051EE56C
:100CBD001E7002051DC3940AE51D6480948040B129
:100CCD0043A0407F0A7E00120FCC53A0BF7F0A7E47
:040CDD0000020FCC36
:091E7700AD07AC06E4FF020C17F4
:091E8000AD07AC067F04020C174B
:091E8900AD07AC067F05020C1741
:091E9200AD07AC067F06020C1737
:091E9B00AD07AC067F01020C1733
:091EA400AD07AC067F02020C1729
:091EAD00AD07AC067F03020C171F
:101AC4008D1AAD0790E678E04480F090E679EDF069
:101AD4007F647E00120FCC90E679E51AF07F647E75
:101AE40000120FCC90E678E04440F07F647E000260
:021AF4000FCC15
:100F2C00121E235380FE7F017E00120FCC121E6313
:100F3C007F027E00120FCC121E6D7F027E00120FFC
:100F4C00CC121ECE7F027E00120FCC121ECA7F0264
:100F5C007E00120FCC121E597F027E00120FCC1293
:100F6C0019217F027E00120FCC121EC67F027E005A
:100F7C00120FCC121DEE7F027E00120FCC121E63DC
:100F8C007F027E00120FCC121E6D7F027E00120FAC
:100F9C00CC121ECE7F027E00120FCC121ECA7F0214
:100FAC007E00120FCC121E597F027E00120FCC1243
:100FBC0019217F027E00120FCC121EC67F027E000A
:100FCC00EF7803C333CE33CED8F9FFEF4E6007EF83
:070FDC001F70F81E80F522D2
:041EC60053B1F722FB
:041ECA0043B10822F6
:041ECE0053B17F226B
:101DDD007F017E00120FCC121EC67F017E00120FF6
:011DED00CC29
:041DEE0043B180225B
:0A1E450053B1EF53B1BF53B1DF22D8
:0A1E4F0053B1FE53B1FB53B1FD2265
:0A1E590053B1EF43B14043B1202222
:0A1E630053B1FE43B10443B1022263
:0A1E6D0043B11043B14043B12022FD
:1018E8007F017E00120FCC121E637F017E00120F53
:1018F800CC121E6D7F017E00120FCC121ECE7F010E
:101908007E00120FCC121ECA7F017E00120FCC126D
:091918001E597F017E00120FCC64
:0A19210043B10143B10443B10222B7
:0C1E2300121E59121EC6121921021DEEDB
:1019E700121E237F0A7E00120FCC121E6D121E6379
:1019F7007F037E00120FCC121E4F7F0D7E00120F49
:101A0700CC121ECA120FC8121ECE120FC8121E63A6
:0D1A1700120FAA121DEE7F147E00020FCCEC
:10179600E4FFFEE53CFDE4FCFB7A01F9F8120937AB
:1017A600E4FB7A01F9F81209378F2CE4FFE53DFED8
:1017B600E4FDFCFB7A01F9F81209378F2EE53EFFAE
:0817C6008F2D12192B1219E7F7
:1017CE00121E237F0A7E00120FCC121ECA121ECECC
:1017DE007F037E00120FCC121E457F0D121DE912E3
:1017EE000FBE121E59120F82121DEE7F147E0002C2
:0217FE000FCC0E
:101D03005380FE1218E8121DDDC283121D4AD283CE
:101D1300121D4A1218E87F01120FC0121DEE120F96
:051D2300C8438001220D
:0D1E1600120F2C121DEE120FC84380012286
:101D2800120F2C121DEE120FC8C283121D4AD28345
:101D3800121D4A7F02120F34121DEE120FC8438083
:021D4800012276
:101C0C00121E23120FC8E4FDFC1218EF121DDD1278
:101C1C0018E8121DDD7F017E00120FCC0DBD0001F6
:0B1C2C000CED64DF7003EC640370DE5D
:011C3700228A
:10192B00C2857F057E00120FCCD2857F057E00120B
:10193B000FCCC2857F057E00120FCCD2857F057E32
:10194B0000120FCCC2857F057E00120FCCD2857F93
:10195B00057E00120FCCC2857F057E00120FCCD204
:02196B008522D3
:101C3800E4F51AF51BD2827F1E7E001218A2C2821A
:101C48007F1E7E001218A2051BE51B7002051AC331
:0A1C58009405E51A6480948040DBD7
:011C6200225F
:091E2F00121C0C1219E71217CE67
:031E3800C2822241
:0312FD00D2822278
:011F000022BE
:011F010022BD
:0B143F001212FDC206752201121E23CE
:10144A00121796E537B40102C287121F00E53970F8
:10145A006EE52C75F040A485F01AF51BAF227E00CC
:10146A00AC1AAD1B12089AD3EF9400EE64809480F4
:10147A0040147FC47E03121C6B121717E51B151B41
:10148A0070DA151A80D6751A00852E1BAF227E00D7
:10149A00AC1AAD1B12089AD3EF9400EE64809480C4
:1014AA0040147FC47E00121C6B121717E51B151B14
:1014BA0070DA151A80D6AF2D7E00121C6B8006E5F5
:0F14CA0022640160FA121F01E537B40102D287D4
:0114D90022F0
:100DAA00121796E537B40102C287121F009028CCA9
:100DBA00E0702AF51CF51D7F487E03121C6B121782
:100DCA00177F757E01121C6B051DE51D7002051C3F
:100DDA00C39409E51C6480948040DC80077F747E9C
:100DEA0008121C6B1217CEE539706AE52C75F040B3
:100DFA00A485F01AF51BAF227E00AC1AAD1B1208AF
:100E0A009AD3EF9400EE940040147FC47E03121C20
:100E1A006B121717E51B151B7002151A80D8751A65
:100E2A0000852E1BAF227E00AC1AAD1B12089AD386
:100E3A00EF9400EE940040147FC47E00121C6B12E3
:100E4A001717E51B151B7002151A80D8AF2D7E00E7
:100E5A00121C6B8006E522640160FA121F01E53755
:050E6A00B40102D28773
:010E6F002260
:041B2800AF40AE3FDD
:101B2C00AD07AC06D3ED9400EC9400401E00000011
:101B3C00EE90E6D0F0000000ED90E6D1F000000051
:0C1B4C0075BB04000000E5BB30E7FB2285
:100FE300E542700C12144AE530452F700F021C0CB9
:0D0FF300E530452F7003121C0C12144A2229
:1010B8009028AEE0FFE4FCFDFEFB7A01F9F8120887
:1010C800ACC004C005C006C0079028ADE0FFE4FC32
:1010D800FDFEFBFA7901F81208ACD003D002D0016A
:1010E800D000EF2BFBEE3AFAED39F9EC38F89028FE
:1010F800AFE0FFE4FCFDFEEB2FF53EEE3AF53DEDEB
:1011080039F53CEC38F53B9028CCE0701E7F9D7E8D
:1011180024AB3EAA3DA93CA83BD31209C9403CE5F3
:101128003E2463F53EE53D34DB801FE47F747E0892
:10113800FDFCAB3EAA3DA93CA83BD31209C9401B04
:10114800E53E248CF53EE53D34F7F53DE53C34FFBE
:0F115800F53CE53B34FFF53B0216911214DA2209
:101691001212FDC206752201121E23120DAA121C7E
:1016A1000C1219E720066EE536D394004003121C94
:1016B1008DD3E5269400E52594004003121B87E4B1
:1016C100F518F519C283121CB6D283121CB6121D6D
:1016D100030519E51970020518C394DFE518648044
:1016E100948340E0121C0C1217CEE4F518F519C2D0
:1016F10083121CB6D283121CB6121D030519E519FB
:1017010070020518C394DFE5186480948340E012E9
:051711001B28121E3828
:0117160022B0
:1014DA0012143F121C0C1219E7300603021570E5AC
:1014EA0036D394004003121C8DD3E5269400E525DB
:1014FA0094004003121B87E4F518F519C283121CE5
:10150A00B6D283121CB6121D030519E5197002051D
:10151A0018C394DFE5186480948340E012144A12D9
:10152A001C0C1217CEE536D394004003121C8DE42E
:10153A00F518F519C283121CB6D283121CB6121DF5
:10154A00030519E51970020518C394DFE5186480CC
:10155A00948340E0121ECA121E6D121921121DEE4A
:06156A00121B28121E38BE
:011570002258
:1012AF0012143F121E2F200640E536D39400400340
:1012BF00121C8DD3E5269400E52594004003121BE4
:1012CF0087E4F518F519C283121CB6D283121CB627
:1012DF00121D030519E51970020518C394DFE518EF
:0912EF006480948340E0121B2886
:0112F80022D3
:1018580012143F121E2F200640E536D39400400391
:10186800121C8DD3E5269400E52594004003121B35
:1018780087E4F518F519C283121CB6D283121CB678
:10188800121D280519E51970020518C394F0E5180A
:091898006480948140E0121B28D9
:0118A1002224
:1012100012143F121E2F3006030212AEE4F518F529
:1012200019121D030519E51970020518C39402E58A
:10123000186480948040EAE4F518F519C3E519951F
:1012400029E5189528500D121D030519E51970ECB4
:10125000051880E8E536D394004003121C8DD3E5D1
:10126000269400E52594004003121B87E4F518F549
:1012700019C3E5199547E51895465012D283121CFB
:10128000B6121D030519E51970E7051880E3E4F5AA
:1012900018F519C3E5199544E5189543500D121D2D
:0E12A000030519E51970EC051880E8121B28EB
:0112AE00221D
:101CB600000000E53225E0E5313390E6D0F0000083
:101CC60000E53225E090E6D1F000000075BB040087
:081CD6000000E5BB30E7FB2232
:101D4A00000000E490E6D0F000000090E6D104F034
:0F1D5A0000000075BB06000000E5BB30E7FB2270
:0B1C8D00AF367E00AC31AD3212089A79
:101C9800AC06EC90E6D0F0000000EF90E6D1F00042
:0E1CA800000075BB06000000E5BB30E7FB2224
:041B8700AF26AE25B2
:101B8B00AD07AC06000000ED25E0EC3390E6D0F09D
:101B9B00000000ED25E090E6D1F000000075BB04DD
:091BAB00000000E5BB30E7FB225D
:081EBE00E4F563D2E9D2AF2282
:101A5A0090E678E020E6F9C2E990E678E04480F082
:101A6A00EF25E090E679F090E678E030E0F990E64C
:101A7A0078E04440F090E678E020E6F990E678E0F5
:061A8A0030E1D6D2E92292
:101AF600A90790E678E020E6F9E563702390E6789A
:101B0600E04480F0E925E090E679F08D5EAF03A928
:101B160007755F018A608961E4F562756301D32206
:021B2600C322D8
:101A9000A90790E678E020E6F9E563702590E678FE
:101AA000E04480F0E925E0440190E679F08D5EAFF6
:101AB00003A907755F018A608961E4F562756303B4
:041AC000D322C32248
:03004B00020B0F96
:100B0F00C0E0C083C082C085C084C086758600C027
:100B1F00D075D000C000C001C002C003C006C0071E
:100B2F0090E678E030E206756306020BF990E678FE
:100B3F00E020E10CE56364026006756307020BF9C0
:100B4F00E56324FE605F14603624FE7003020BEA37
:100B5F0024FC7003020BF624086003020BF9AB5F51
:100B6F00AA60A961AF6205628F8275830012084B7C
:100B7F0090E679F0E562655E7070756305806B9045
:100B8F00E679E0AB5FAA60A961AE628E82758300E1
:100B9F00120878756302E55E6401704E90E678E0A6
:100BAF004420F08045E55E24FEB5620790E678E0CC
:100BBF004420F0E55E14B5620A90E678E04440F018
:100BCF0075630090E679E0AB5FAA60A961AE628EB3
:100BDF00827583001208780562800F90E678E044F2
:100BEF0040F075630080037563005391DFD007D029
:100BFF0006D003D002D001D000D0D0D086D084D080
:080C0F0085D082D083D0E032D1
:03000000021605E0
:0C160500787FE4F6D8FD75816302164C76
:10084B00BB010CE58229F582E5833AF583E0225062
:10085B0006E92582F8E622BBFE06E92582F8E222AC
:0D086B00E58229F582E5833AF583E49322C6
:10087800F8BB010DE58229F582E5833AF583E8F0B6
:10088800225006E92582C8F622BBFE05E92582C862
:02089800F2224A
:10089A00EF8DF0A4A8F0CF8CF0A428CE8DF0A42E72
:0208AA00FE222C
:1008AC00E88FF0A4CC8BF0A42CFCE98EF0A42CFCEB
:1008BC008AF0EDA42CFCEA8EF0A4CDA8F08BF0A469
:1008CC002DCC3825F0FDE98FF0A42CCD35F0FCEBC8
:1008DC008EF0A4FEA9F0EB8FF0A4CFC5F02ECD398D
:0F08EC00FEE43CFCEAA42DCE35F0FDE43CFC22FA
:1008FB0075F008758200EF2FFFEE33FECD33CDCCB4
:10090B0033CCC58233C5829BED9AEC99E582984036
:10091B000CF582EE9BFEED9AFDEC99FC0FD5F0D613
:10092B00E4CEFBE4CDFAE4CCF9A88222B800C1B93D
:10093B000059BA002DEC8BF084CFCECDFCE5F0CB7B
:10094B00F97818EF2FFFEE33FEED33FDEC33FCEBB4
:10095B0033FB10D703994004EB99FB0FD8E5E4F96F
:10096B00FA227818EF2FFFEE33FEED33FDEC33FC5C
:10097B00C933C910D7059BE99A4007EC9BFCE99A50
:10098B00F90FD8E0E4C9FAE4CCFB2275F010EF2F95
:10099B00FFEE33FEED33FDCC33CCC833C810D70795
:1009AB009BEC9AE899400AED9BFDEC9AFCE899F8D0
:0E09BB000FD5F0DAE4CDFBE4CCFAE4C8F92263
:1009C900EB9FF5F0EA9E42F0E99D42F0E89C45F084
:0109D90022FB
:1016110002069EE493A3F8E493A34003F68001F24B
:1016210008DFF48029E493A3F85407240CC8C333DA
:10163100C4540F4420C8834004F456800146F6DFA9
:10164100E4800B0102040810204080900CE1E47E4C
:10165100019360BCA3FF543F30E509541FFEE4939E
:10166100A360010ECF54C025E060A840B8E493A365
:10167100FAE493A3F8E493A3C8C582C8CAC583CA90
:10168100F0A3C8C582C8CAC583CADFE9DEE780BE48
:010DA9000049
:00000001FF
